{"abi":[{"inputs":[],"name":"getTransactionsCount","outputs":[{"internalType":"uint256","name":"","type":"uint256"}],"stateMutability":"view","type":"function"},{"inputs":[{"internalType":"uint256","name":"value","type":"uint256"},{"internalType":"uint256","name":"timeStamp","type":"uint256"},{"internalType":"address payable","name":"recepient","type":"address"}],"name":"receiveEth","outputs":[],"stateMutability":"payable","type":"function"},{"inputs":[],"name":"sendEth","outputs":[],"stateMutability":"payable","type":"function"},{"inputs":[{"internalType":"uint256","name":"","type":"uint256"}],"name":"transactions","outputs":[{"internalType":"uint256","name":"timeStamp","type":"uint256"},{"internalType":"address payable","name":"recepient","type":"address"},{"internalType":"uint256","name":"value","type":"uint256"}],"stateMutability":"view","type":"function"}],"devdoc":{"kind":"dev","methods":{},"version":1},"evm":{"assembly":"    /* \"Faucet.sol\":27:1056  contract Faucet {\r... */\n  mstore(0x40, 0x80)\n  callvalue\n  dup1\n  iszero\n  tag_1\n  jumpi\n  0x00\n  dup1\n  revert\ntag_1:\n  pop\n  dataSize(sub_0)\n  dup1\n  dataOffset(sub_0)\n  0x00\n  codecopy\n  0x00\n  return\nstop\n\nsub_0: assembly {\n        /* \"Faucet.sol\":27:1056  contract Faucet {\r... */\n      mstore(0x40, 0x80)\n      jumpi(tag_1, lt(calldatasize, 0x04))\n      shr(0xe0, calldataload(0x00))\n      dup1\n      0x06e99fef\n      eq\n      tag_2\n      jumpi\n      dup1\n      0x578cb8f9\n      eq\n      tag_3\n      jumpi\n      dup1\n      0x9ace38c2\n      eq\n      tag_4\n      jumpi\n      dup1\n      0xc1c7a5d0\n      eq\n      tag_5\n      jumpi\n    tag_1:\n      0x00\n      dup1\n      revert\n        /* \"Faucet.sol\":959:1053  function sendEth() public payable {\r... */\n    tag_2:\n      tag_6\n      tag_7\n      jump\t// in\n    tag_6:\n      stop\n        /* \"Faucet.sol\":844:951  function getTransactionsCount() public view returns (uint256) {\r... */\n    tag_3:\n      callvalue\n      dup1\n      iszero\n      tag_8\n      jumpi\n      0x00\n      dup1\n      revert\n    tag_8:\n      pop\n      tag_9\n      tag_10\n      jump\t// in\n    tag_9:\n      mload(0x40)\n      tag_11\n      swap2\n      swap1\n      tag_12\n      jump\t// in\n    tag_11:\n      mload(0x40)\n      dup1\n      swap2\n      sub\n      swap1\n      return\n        /* \"Faucet.sol\":277:310  Transaction[] public transactions */\n    tag_4:\n      callvalue\n      dup1\n      iszero\n      tag_13\n      jumpi\n      0x00\n      dup1\n      revert\n    tag_13:\n      pop\n      tag_14\n      0x04\n      dup1\n      calldatasize\n      sub\n      dup2\n      add\n      swap1\n      tag_15\n      swap2\n      swap1\n      tag_16\n      jump\t// in\n    tag_15:\n      tag_17\n      jump\t// in\n    tag_14:\n      mload(0x40)\n      tag_18\n      swap4\n      swap3\n      swap2\n      swap1\n      tag_19\n      jump\t// in\n    tag_18:\n      mload(0x40)\n      dup1\n      swap2\n      sub\n      swap1\n      return\n        /* \"Faucet.sol\":479:836  function receiveEth(\r... */\n    tag_5:\n      tag_20\n      0x04\n      dup1\n      calldatasize\n      sub\n      dup2\n      add\n      swap1\n      tag_21\n      swap2\n      swap1\n      tag_22\n      jump\t// in\n    tag_21:\n      tag_23\n      jump\t// in\n    tag_20:\n      stop\n        /* \"Faucet.sol\":959:1053  function sendEth() public payable {\r... */\n    tag_7:\n        /* \"Faucet.sol\":225:267  0x7c69c2E1d619C356125cAc15fc7302C8E864f2A7 */\n      0x7c69c2e1d619c356125cac15fc7302c8e864f2a7\n        /* \"Faucet.sol\":1004:1022  myAddress.transfer */\n      0xffffffffffffffffffffffffffffffffffffffff\n      and\n        /* \"Faucet.sol\":1004:1045  myAddress.transfer(address(this).balance) */\n      0x08fc\n        /* \"Faucet.sol\":1023:1044  address(this).balance */\n      selfbalance\n        /* \"Faucet.sol\":1004:1045  myAddress.transfer(address(this).balance) */\n      swap1\n      dup2\n      iszero\n      mul\n      swap1\n      mload(0x40)\n      0x00\n      mload(0x40)\n      dup1\n      dup4\n      sub\n      dup2\n      dup6\n      dup9\n      dup9\n      call\n      swap4\n      pop\n      pop\n      pop\n      pop\n      iszero\n      dup1\n      iszero\n      tag_26\n      jumpi\n      returndatasize\n      0x00\n      dup1\n      returndatacopy\n      revert(0x00, returndatasize)\n    tag_26:\n      pop\n        /* \"Faucet.sol\":959:1053  function sendEth() public payable {\r... */\n      jump\t// out\n        /* \"Faucet.sol\":844:951  function getTransactionsCount() public view returns (uint256) {\r... */\n    tag_10:\n        /* \"Faucet.sol\":897:904  uint256 */\n      0x00\n        /* \"Faucet.sol\":924:936  transactions */\n      dup1\n        /* \"Faucet.sol\":924:943  transactions.length */\n      dup1\n      sload\n      swap1\n      pop\n        /* \"Faucet.sol\":917:943  return transactions.length */\n      swap1\n      pop\n        /* \"Faucet.sol\":844:951  function getTransactionsCount() public view returns (uint256) {\r... */\n      swap1\n      jump\t// out\n        /* \"Faucet.sol\":277:310  Transaction[] public transactions */\n    tag_17:\n      0x00\n      dup2\n      dup2\n      sload\n      dup2\n      lt\n      tag_28\n      jumpi\n      0x00\n      dup1\n      revert\n    tag_28:\n      swap1\n      0x00\n      mstore\n      keccak256(0x00, 0x20)\n      swap1\n      0x03\n      mul\n      add\n      0x00\n      swap2\n      pop\n      swap1\n      pop\n      dup1\n      0x00\n      add\n      sload\n      swap1\n      dup1\n      0x01\n      add\n      0x00\n      swap1\n      sload\n      swap1\n      0x0100\n      exp\n      swap1\n      div\n      0xffffffffffffffffffffffffffffffffffffffff\n      and\n      swap1\n      dup1\n      0x02\n      add\n      sload\n      swap1\n      pop\n      dup4\n      jump\t// out\n        /* \"Faucet.sol\":479:836  function receiveEth(\r... */\n    tag_23:\n        /* \"Faucet.sol\":623:632  recepient */\n      dup1\n        /* \"Faucet.sol\":431:439  received */\n      0x01\n        /* \"Faucet.sol\":431:450  received[recepient] */\n      0x00\n        /* \"Faucet.sol\":440:449  recepient */\n      dup3\n        /* \"Faucet.sol\":431:450  received[recepient] */\n      0xffffffffffffffffffffffffffffffffffffffff\n      and\n      0xffffffffffffffffffffffffffffffffffffffff\n      and\n      dup2\n      mstore\n      0x20\n      add\n      swap1\n      dup2\n      mstore\n      0x20\n      add\n      0x00\n      keccak256\n      0x00\n      swap1\n      sload\n      swap1\n      0x0100\n      exp\n      swap1\n      div\n      0xff\n      and\n        /* \"Faucet.sol\":430:450  !received[recepient] */\n      iszero\n        /* \"Faucet.sol\":422:451  require(!received[recepient]) */\n      tag_31\n      jumpi\n      0x00\n      dup1\n      revert\n    tag_31:\n        /* \"Faucet.sol\":645:665  Transaction memory t */\n      tag_33\n      tag_34\n      jump\t// in\n    tag_33:\n        /* \"Faucet.sol\":690:699  timeStamp */\n      dup4\n        /* \"Faucet.sol\":676:677  t */\n      dup2\n        /* \"Faucet.sol\":676:687  t.timeStamp */\n      0x00\n      add\n        /* \"Faucet.sol\":676:699  t.timeStamp = timeStamp */\n      dup2\n      dup2\n      mstore\n      pop\n      pop\n        /* \"Faucet.sol\":720:725  value */\n      dup5\n        /* \"Faucet.sol\":710:711  t */\n      dup2\n        /* \"Faucet.sol\":710:717  t.value */\n      0x40\n      add\n        /* \"Faucet.sol\":710:725  t.value = value */\n      dup2\n      dup2\n      mstore\n      pop\n      pop\n        /* \"Faucet.sol\":750:759  recepient */\n      dup3\n        /* \"Faucet.sol\":736:737  t */\n      dup2\n        /* \"Faucet.sol\":736:747  t.recepient */\n      0x20\n      add\n        /* \"Faucet.sol\":736:759  t.recepient = recepient */\n      swap1\n      0xffffffffffffffffffffffffffffffffffffffff\n      and\n      swap1\n      dup2\n      0xffffffffffffffffffffffffffffffffffffffff\n      and\n      dup2\n      mstore\n      pop\n      pop\n        /* \"Faucet.sol\":770:771  t */\n      dup1\n        /* \"Faucet.sol\":770:781  t.recepient */\n      0x20\n      add\n      mload\n        /* \"Faucet.sol\":770:790  t.recepient.transfer */\n      0xffffffffffffffffffffffffffffffffffffffff\n      and\n        /* \"Faucet.sol\":770:797  t.recepient.transfer(value) */\n      0x08fc\n        /* \"Faucet.sol\":791:796  value */\n      dup7\n        /* \"Faucet.sol\":770:797  t.recepient.transfer(value) */\n      swap1\n      dup2\n      iszero\n      mul\n      swap1\n      mload(0x40)\n      0x00\n      mload(0x40)\n      dup1\n      dup4\n      sub\n      dup2\n      dup6\n      dup9\n      dup9\n      call\n      swap4\n      pop\n      pop\n      pop\n      pop\n      iszero\n      dup1\n      iszero\n      tag_36\n      jumpi\n      returndatasize\n      0x00\n      dup1\n      returndatacopy\n      revert(0x00, returndatasize)\n    tag_36:\n      pop\n        /* \"Faucet.sol\":808:820  transactions */\n      0x00\n        /* \"Faucet.sol\":826:827  t */\n      dup2\n        /* \"Faucet.sol\":808:828  transactions.push(t) */\n      swap1\n      dup1\n      0x01\n      dup2\n      sload\n      add\n      dup1\n      dup3\n      sstore\n      dup1\n      swap2\n      pop\n      pop\n      0x01\n      swap1\n      sub\n      swap1\n      0x00\n      mstore\n      keccak256(0x00, 0x20)\n      swap1\n      0x03\n      mul\n      add\n      0x00\n      swap1\n      swap2\n      swap1\n      swap2\n      swap1\n      swap2\n      pop\n      0x00\n      dup3\n      add\n      mload\n      dup2\n      0x00\n      add\n      sstore\n      0x20\n      dup3\n      add\n      mload\n      dup2\n      0x01\n      add\n      exp(0x0100, 0x00)\n      dup2\n      sload\n      dup2\n      0xffffffffffffffffffffffffffffffffffffffff\n      mul\n      not\n      and\n      swap1\n      dup4\n      0xffffffffffffffffffffffffffffffffffffffff\n      and\n      mul\n      or\n      swap1\n      sstore\n      pop\n      0x40\n      dup3\n      add\n      mload\n      dup2\n      0x02\n      add\n      sstore\n      pop\n      pop\n        /* \"Faucet.sol\":462:463  _ */\n      pop\n        /* \"Faucet.sol\":479:836  function receiveEth(\r... */\n      pop\n      pop\n      pop\n      pop\n      jump\t// out\n    tag_34:\n      mload(0x40)\n      dup1\n      0x60\n      add\n      0x40\n      mstore\n      dup1\n      0x00\n      dup2\n      mstore\n      0x20\n      add\n      and(0xffffffffffffffffffffffffffffffffffffffff, 0x00)\n      dup2\n      mstore\n      0x20\n      add\n      0x00\n      dup2\n      mstore\n      pop\n      swap1\n      jump\t// out\n        /* \"#utility.yul\":7:162   */\n    tag_39:\n        /* \"#utility.yul\":61:66   */\n      0x00\n        /* \"#utility.yul\":99:105   */\n      dup2\n        /* \"#utility.yul\":86:106   */\n      calldataload\n        /* \"#utility.yul\":77:106   */\n      swap1\n      pop\n        /* \"#utility.yul\":115:156   */\n      tag_41\n        /* \"#utility.yul\":150:155   */\n      dup2\n        /* \"#utility.yul\":115:156   */\n      tag_42\n      jump\t// in\n    tag_41:\n        /* \"#utility.yul\":67:162   */\n      swap3\n      swap2\n      pop\n      pop\n      jump\t// out\n        /* \"#utility.yul\":168:307   */\n    tag_43:\n        /* \"#utility.yul\":214:219   */\n      0x00\n        /* \"#utility.yul\":252:258   */\n      dup2\n        /* \"#utility.yul\":239:259   */\n      calldataload\n        /* \"#utility.yul\":230:259   */\n      swap1\n      pop\n        /* \"#utility.yul\":268:301   */\n      tag_45\n        /* \"#utility.yul\":295:300   */\n      dup2\n        /* \"#utility.yul\":268:301   */\n      tag_46\n      jump\t// in\n    tag_45:\n        /* \"#utility.yul\":220:307   */\n      swap3\n      swap2\n      pop\n      pop\n      jump\t// out\n        /* \"#utility.yul\":313:575   */\n    tag_16:\n        /* \"#utility.yul\":372:378   */\n      0x00\n        /* \"#utility.yul\":421:423   */\n      0x20\n        /* \"#utility.yul\":409:418   */\n      dup3\n        /* \"#utility.yul\":400:407   */\n      dup5\n        /* \"#utility.yul\":396:419   */\n      sub\n        /* \"#utility.yul\":392:424   */\n      slt\n        /* \"#utility.yul\":389:391   */\n      iszero\n      tag_48\n      jumpi\n        /* \"#utility.yul\":437:438   */\n      0x00\n        /* \"#utility.yul\":434:435   */\n      dup1\n        /* \"#utility.yul\":427:439   */\n      revert\n        /* \"#utility.yul\":389:391   */\n    tag_48:\n        /* \"#utility.yul\":480:481   */\n      0x00\n        /* \"#utility.yul\":505:558   */\n      tag_49\n        /* \"#utility.yul\":550:557   */\n      dup5\n        /* \"#utility.yul\":541:547   */\n      dup3\n        /* \"#utility.yul\":530:539   */\n      dup6\n        /* \"#utility.yul\":526:548   */\n      add\n        /* \"#utility.yul\":505:558   */\n      tag_43\n      jump\t// in\n    tag_49:\n        /* \"#utility.yul\":495:558   */\n      swap2\n      pop\n        /* \"#utility.yul\":451:568   */\n      pop\n        /* \"#utility.yul\":379:575   */\n      swap3\n      swap2\n      pop\n      pop\n      jump\t// out\n        /* \"#utility.yul\":581:1149   */\n    tag_22:\n        /* \"#utility.yul\":666:672   */\n      0x00\n        /* \"#utility.yul\":674:680   */\n      dup1\n        /* \"#utility.yul\":682:688   */\n      0x00\n        /* \"#utility.yul\":731:733   */\n      0x60\n        /* \"#utility.yul\":719:728   */\n      dup5\n        /* \"#utility.yul\":710:717   */\n      dup7\n        /* \"#utility.yul\":706:729   */\n      sub\n        /* \"#utility.yul\":702:734   */\n      slt\n        /* \"#utility.yul\":699:701   */\n      iszero\n      tag_51\n      jumpi\n        /* \"#utility.yul\":747:748   */\n      0x00\n        /* \"#utility.yul\":744:745   */\n      dup1\n        /* \"#utility.yul\":737:749   */\n      revert\n        /* \"#utility.yul\":699:701   */\n    tag_51:\n        /* \"#utility.yul\":790:791   */\n      0x00\n        /* \"#utility.yul\":815:868   */\n      tag_52\n        /* \"#utility.yul\":860:867   */\n      dup7\n        /* \"#utility.yul\":851:857   */\n      dup3\n        /* \"#utility.yul\":840:849   */\n      dup8\n        /* \"#utility.yul\":836:858   */\n      add\n        /* \"#utility.yul\":815:868   */\n      tag_43\n      jump\t// in\n    tag_52:\n        /* \"#utility.yul\":805:868   */\n      swap4\n      pop\n        /* \"#utility.yul\":761:878   */\n      pop\n        /* \"#utility.yul\":917:919   */\n      0x20\n        /* \"#utility.yul\":943:996   */\n      tag_53\n        /* \"#utility.yul\":988:995   */\n      dup7\n        /* \"#utility.yul\":979:985   */\n      dup3\n        /* \"#utility.yul\":968:977   */\n      dup8\n        /* \"#utility.yul\":964:986   */\n      add\n        /* \"#utility.yul\":943:996   */\n      tag_43\n      jump\t// in\n    tag_53:\n        /* \"#utility.yul\":933:996   */\n      swap3\n      pop\n        /* \"#utility.yul\":888:1006   */\n      pop\n        /* \"#utility.yul\":1045:1047   */\n      0x40\n        /* \"#utility.yul\":1071:1132   */\n      tag_54\n        /* \"#utility.yul\":1124:1131   */\n      dup7\n        /* \"#utility.yul\":1115:1121   */\n      dup3\n        /* \"#utility.yul\":1104:1113   */\n      dup8\n        /* \"#utility.yul\":1100:1122   */\n      add\n        /* \"#utility.yul\":1071:1132   */\n      tag_39\n      jump\t// in\n    tag_54:\n        /* \"#utility.yul\":1061:1132   */\n      swap2\n      pop\n        /* \"#utility.yul\":1016:1142   */\n      pop\n        /* \"#utility.yul\":689:1149   */\n      swap3\n      pop\n      swap3\n      pop\n      swap3\n      jump\t// out\n        /* \"#utility.yul\":1155:1297   */\n    tag_55:\n        /* \"#utility.yul\":1258:1290   */\n      tag_57\n        /* \"#utility.yul\":1284:1289   */\n      dup2\n        /* \"#utility.yul\":1258:1290   */\n      tag_58\n      jump\t// in\n    tag_57:\n        /* \"#utility.yul\":1253:1256   */\n      dup3\n        /* \"#utility.yul\":1246:1291   */\n      mstore\n        /* \"#utility.yul\":1236:1297   */\n      pop\n      pop\n      jump\t// out\n        /* \"#utility.yul\":1303:1421   */\n    tag_59:\n        /* \"#utility.yul\":1390:1414   */\n      tag_61\n        /* \"#utility.yul\":1408:1413   */\n      dup2\n        /* \"#utility.yul\":1390:1414   */\n      tag_62\n      jump\t// in\n    tag_61:\n        /* \"#utility.yul\":1385:1388   */\n      dup3\n        /* \"#utility.yul\":1378:1415   */\n      mstore\n        /* \"#utility.yul\":1368:1421   */\n      pop\n      pop\n      jump\t// out\n        /* \"#utility.yul\":1427:1649   */\n    tag_12:\n        /* \"#utility.yul\":1520:1524   */\n      0x00\n        /* \"#utility.yul\":1558:1560   */\n      0x20\n        /* \"#utility.yul\":1547:1556   */\n      dup3\n        /* \"#utility.yul\":1543:1561   */\n      add\n        /* \"#utility.yul\":1535:1561   */\n      swap1\n      pop\n        /* \"#utility.yul\":1571:1642   */\n      tag_64\n        /* \"#utility.yul\":1639:1640   */\n      0x00\n        /* \"#utility.yul\":1628:1637   */\n      dup4\n        /* \"#utility.yul\":1624:1641   */\n      add\n        /* \"#utility.yul\":1615:1621   */\n      dup5\n        /* \"#utility.yul\":1571:1642   */\n      tag_59\n      jump\t// in\n    tag_64:\n        /* \"#utility.yul\":1525:1649   */\n      swap3\n      swap2\n      pop\n      pop\n      jump\t// out\n        /* \"#utility.yul\":1655:2129   */\n    tag_19:\n        /* \"#utility.yul\":1820:1824   */\n      0x00\n        /* \"#utility.yul\":1858:1860   */\n      0x60\n        /* \"#utility.yul\":1847:1856   */\n      dup3\n        /* \"#utility.yul\":1843:1861   */\n      add\n        /* \"#utility.yul\":1835:1861   */\n      swap1\n      pop\n        /* \"#utility.yul\":1871:1942   */\n      tag_66\n        /* \"#utility.yul\":1939:1940   */\n      0x00\n        /* \"#utility.yul\":1928:1937   */\n      dup4\n        /* \"#utility.yul\":1924:1941   */\n      add\n        /* \"#utility.yul\":1915:1921   */\n      dup7\n        /* \"#utility.yul\":1871:1942   */\n      tag_59\n      jump\t// in\n    tag_66:\n        /* \"#utility.yul\":1952:2040   */\n      tag_67\n        /* \"#utility.yul\":2036:2038   */\n      0x20\n        /* \"#utility.yul\":2025:2034   */\n      dup4\n        /* \"#utility.yul\":2021:2039   */\n      add\n        /* \"#utility.yul\":2012:2018   */\n      dup6\n        /* \"#utility.yul\":1952:2040   */\n      tag_55\n      jump\t// in\n    tag_67:\n        /* \"#utility.yul\":2050:2122   */\n      tag_68\n        /* \"#utility.yul\":2118:2120   */\n      0x40\n        /* \"#utility.yul\":2107:2116   */\n      dup4\n        /* \"#utility.yul\":2103:2121   */\n      add\n        /* \"#utility.yul\":2094:2100   */\n      dup5\n        /* \"#utility.yul\":2050:2122   */\n      tag_59\n      jump\t// in\n    tag_68:\n        /* \"#utility.yul\":1825:2129   */\n      swap5\n      swap4\n      pop\n      pop\n      pop\n      pop\n      jump\t// out\n        /* \"#utility.yul\":2135:2239   */\n    tag_58:\n        /* \"#utility.yul\":2180:2187   */\n      0x00\n        /* \"#utility.yul\":2209:2233   */\n      tag_70\n        /* \"#utility.yul\":2227:2232   */\n      dup3\n        /* \"#utility.yul\":2209:2233   */\n      tag_71\n      jump\t// in\n    tag_70:\n        /* \"#utility.yul\":2198:2233   */\n      swap1\n      pop\n        /* \"#utility.yul\":2188:2239   */\n      swap2\n      swap1\n      pop\n      jump\t// out\n        /* \"#utility.yul\":2245:2371   */\n    tag_71:\n        /* \"#utility.yul\":2282:2289   */\n      0x00\n        /* \"#utility.yul\":2322:2364   */\n      0xffffffffffffffffffffffffffffffffffffffff\n        /* \"#utility.yul\":2315:2320   */\n      dup3\n        /* \"#utility.yul\":2311:2365   */\n      and\n        /* \"#utility.yul\":2300:2365   */\n      swap1\n      pop\n        /* \"#utility.yul\":2290:2371   */\n      swap2\n      swap1\n      pop\n      jump\t// out\n        /* \"#utility.yul\":2377:2454   */\n    tag_62:\n        /* \"#utility.yul\":2414:2421   */\n      0x00\n        /* \"#utility.yul\":2443:2448   */\n      dup2\n        /* \"#utility.yul\":2432:2448   */\n      swap1\n      pop\n        /* \"#utility.yul\":2422:2454   */\n      swap2\n      swap1\n      pop\n      jump\t// out\n        /* \"#utility.yul\":2460:2598   */\n    tag_42:\n        /* \"#utility.yul\":2541:2573   */\n      tag_75\n        /* \"#utility.yul\":2567:2572   */\n      dup2\n        /* \"#utility.yul\":2541:2573   */\n      tag_58\n      jump\t// in\n    tag_75:\n        /* \"#utility.yul\":2534:2539   */\n      dup2\n        /* \"#utility.yul\":2531:2574   */\n      eq\n        /* \"#utility.yul\":2521:2523   */\n      tag_76\n      jumpi\n        /* \"#utility.yul\":2588:2589   */\n      0x00\n        /* \"#utility.yul\":2585:2586   */\n      dup1\n        /* \"#utility.yul\":2578:2590   */\n      revert\n        /* \"#utility.yul\":2521:2523   */\n    tag_76:\n        /* \"#utility.yul\":2511:2598   */\n      pop\n      jump\t// out\n        /* \"#utility.yul\":2604:2726   */\n    tag_46:\n        /* \"#utility.yul\":2677:2701   */\n      tag_78\n        /* \"#utility.yul\":2695:2700   */\n      dup2\n        /* \"#utility.yul\":2677:2701   */\n      tag_62\n      jump\t// in\n    tag_78:\n        /* \"#utility.yul\":2670:2675   */\n      dup2\n        /* \"#utility.yul\":2667:2702   */\n      eq\n        /* \"#utility.yul\":2657:2659   */\n      tag_79\n      jumpi\n        /* \"#utility.yul\":2716:2717   */\n      0x00\n        /* \"#utility.yul\":2713:2714   */\n      dup1\n        /* \"#utility.yul\":2706:2718   */\n      revert\n        /* \"#utility.yul\":2657:2659   */\n    tag_79:\n        /* \"#utility.yul\":2647:2726   */\n      pop\n      jump\t// out\n\n    auxdata: 0xa264697066735822122050b6f2062fa56a95095beb5b05d6ab4b08501181aefcfc1d529830a5d3633dca64736f6c63430008040033\n}\n","bytecode":{"linkReferences":{},"object":"608060405234801561001057600080fd5b50610507806100206000396000f3fe60806040526004361061003f5760003560e01c806306e99fef14610044578063578cb8f91461004e5780639ace38c214610079578063c1c7a5d0146100b8575b600080fd5b61004c6100d4565b005b34801561005a57600080fd5b50610063610131565b6040516100709190610415565b60405180910390f35b34801561008557600080fd5b506100a0600480360381019061009b919061037f565b61013d565b6040516100af93929190610430565b60405180910390f35b6100d260048036038101906100cd91906103a8565b610197565b005b737c69c2e1d619c356125cac15fc7302c8e864f2a773ffffffffffffffffffffffffffffffffffffffff166108fc479081150290604051600060405180830381858888f1935050505015801561012e573d6000803e3d6000fd5b50565b60008080549050905090565b6000818154811061014d57600080fd5b90600052602060002090600302016000915090508060000154908060010160009054906101000a900473ffffffffffffffffffffffffffffffffffffffff16908060020154905083565b80600160008273ffffffffffffffffffffffffffffffffffffffff1673ffffffffffffffffffffffffffffffffffffffff16815260200190815260200160002060009054906101000a900460ff16156101ef57600080fd5b6101f761031e565b838160000181815250508481604001818152505082816020019073ffffffffffffffffffffffffffffffffffffffff16908173ffffffffffffffffffffffffffffffffffffffff1681525050806020015173ffffffffffffffffffffffffffffffffffffffff166108fc869081150290604051600060405180830381858888f1935050505015801561028d573d6000803e3d6000fd5b5060008190806001815401808255809150506001900390600052602060002090600302016000909190919091506000820151816000015560208201518160010160006101000a81548173ffffffffffffffffffffffffffffffffffffffff021916908373ffffffffffffffffffffffffffffffffffffffff1602179055506040820151816002015550505050505050565b604051806060016040528060008152602001600073ffffffffffffffffffffffffffffffffffffffff168152602001600081525090565b600081359050610364816104a3565b92915050565b600081359050610379816104ba565b92915050565b60006020828403121561039157600080fd5b600061039f8482850161036a565b91505092915050565b6000806000606084860312156103bd57600080fd5b60006103cb8682870161036a565b93505060206103dc8682870161036a565b92505060406103ed86828701610355565b9150509250925092565b61040081610467565b82525050565b61040f81610499565b82525050565b600060208201905061042a6000830184610406565b92915050565b60006060820190506104456000830186610406565b61045260208301856103f7565b61045f6040830184610406565b949350505050565b600061047282610479565b9050919050565b600073ffffffffffffffffffffffffffffffffffffffff82169050919050565b6000819050919050565b6104ac81610467565b81146104b757600080fd5b50565b6104c381610499565b81146104ce57600080fd5b5056fea264697066735822122050b6f2062fa56a95095beb5b05d6ab4b08501181aefcfc1d529830a5d3633dca64736f6c63430008040033","opcodes":"PUSH1 0x80 PUSH1 0x40 MSTORE CALLVALUE DUP1 ISZERO PUSH2 0x10 JUMPI PUSH1 0x0 DUP1 REVERT JUMPDEST POP PUSH2 0x507 DUP1 PUSH2 0x20 PUSH1 0x0 CODECOPY PUSH1 0x0 RETURN INVALID PUSH1 0x80 PUSH1 0x40 MSTORE PUSH1 0x4 CALLDATASIZE LT PUSH2 0x3F JUMPI PUSH1 0x0 CALLDATALOAD PUSH1 0xE0 SHR DUP1 PUSH4 0x6E99FEF EQ PUSH2 0x44 JUMPI DUP1 PUSH4 0x578CB8F9 EQ PUSH2 0x4E JUMPI DUP1 PUSH4 0x9ACE38C2 EQ PUSH2 0x79 JUMPI DUP1 PUSH4 0xC1C7A5D0 EQ PUSH2 0xB8 JUMPI JUMPDEST PUSH1 0x0 DUP1 REVERT JUMPDEST PUSH2 0x4C PUSH2 0xD4 JUMP JUMPDEST STOP JUMPDEST CALLVALUE DUP1 ISZERO PUSH2 0x5A JUMPI PUSH1 0x0 DUP1 REVERT JUMPDEST POP PUSH2 0x63 PUSH2 0x131 JUMP JUMPDEST PUSH1 0x40 MLOAD PUSH2 0x70 SWAP2 SWAP1 PUSH2 0x415 JUMP JUMPDEST PUSH1 0x40 MLOAD DUP1 SWAP2 SUB SWAP1 RETURN JUMPDEST CALLVALUE DUP1 ISZERO PUSH2 0x85 JUMPI PUSH1 0x0 DUP1 REVERT JUMPDEST POP PUSH2 0xA0 PUSH1 0x4 DUP1 CALLDATASIZE SUB DUP2 ADD SWAP1 PUSH2 0x9B SWAP2 SWAP1 PUSH2 0x37F JUMP JUMPDEST PUSH2 0x13D JUMP JUMPDEST PUSH1 0x40 MLOAD PUSH2 0xAF SWAP4 SWAP3 SWAP2 SWAP1 PUSH2 0x430 JUMP JUMPDEST PUSH1 0x40 MLOAD DUP1 SWAP2 SUB SWAP1 RETURN JUMPDEST PUSH2 0xD2 PUSH1 0x4 DUP1 CALLDATASIZE SUB DUP2 ADD SWAP1 PUSH2 0xCD SWAP2 SWAP1 PUSH2 0x3A8 JUMP JUMPDEST PUSH2 0x197 JUMP JUMPDEST STOP JUMPDEST PUSH20 0x7C69C2E1D619C356125CAC15FC7302C8E864F2A7 PUSH20 0xFFFFFFFFFFFFFFFFFFFFFFFFFFFFFFFFFFFFFFFF AND PUSH2 0x8FC SELFBALANCE SWAP1 DUP2 ISZERO MUL SWAP1 PUSH1 0x40 MLOAD PUSH1 0x0 PUSH1 0x40 MLOAD DUP1 DUP4 SUB DUP2 DUP6 DUP9 DUP9 CALL SWAP4 POP POP POP POP ISZERO DUP1 ISZERO PUSH2 0x12E JUMPI RETURNDATASIZE PUSH1 0x0 DUP1 RETURNDATACOPY RETURNDATASIZE PUSH1 0x0 REVERT JUMPDEST POP JUMP JUMPDEST PUSH1 0x0 DUP1 DUP1 SLOAD SWAP1 POP SWAP1 POP SWAP1 JUMP JUMPDEST PUSH1 0x0 DUP2 DUP2 SLOAD DUP2 LT PUSH2 0x14D JUMPI PUSH1 0x0 DUP1 REVERT JUMPDEST SWAP1 PUSH1 0x0 MSTORE PUSH1 0x20 PUSH1 0x0 KECCAK256 SWAP1 PUSH1 0x3 MUL ADD PUSH1 0x0 SWAP2 POP SWAP1 POP DUP1 PUSH1 0x0 ADD SLOAD SWAP1 DUP1 PUSH1 0x1 ADD PUSH1 0x0 SWAP1 SLOAD SWAP1 PUSH2 0x100 EXP SWAP1 DIV PUSH20 0xFFFFFFFFFFFFFFFFFFFFFFFFFFFFFFFFFFFFFFFF AND SWAP1 DUP1 PUSH1 0x2 ADD SLOAD SWAP1 POP DUP4 JUMP JUMPDEST DUP1 PUSH1 0x1 PUSH1 0x0 DUP3 PUSH20 0xFFFFFFFFFFFFFFFFFFFFFFFFFFFFFFFFFFFFFFFF AND PUSH20 0xFFFFFFFFFFFFFFFFFFFFFFFFFFFFFFFFFFFFFFFF AND DUP2 MSTORE PUSH1 0x20 ADD SWAP1 DUP2 MSTORE PUSH1 0x20 ADD PUSH1 0x0 KECCAK256 PUSH1 0x0 SWAP1 SLOAD SWAP1 PUSH2 0x100 EXP SWAP1 DIV PUSH1 0xFF AND ISZERO PUSH2 0x1EF JUMPI PUSH1 0x0 DUP1 REVERT JUMPDEST PUSH2 0x1F7 PUSH2 0x31E JUMP JUMPDEST DUP4 DUP2 PUSH1 0x0 ADD DUP2 DUP2 MSTORE POP POP DUP5 DUP2 PUSH1 0x40 ADD DUP2 DUP2 MSTORE POP POP DUP3 DUP2 PUSH1 0x20 ADD SWAP1 PUSH20 0xFFFFFFFFFFFFFFFFFFFFFFFFFFFFFFFFFFFFFFFF AND SWAP1 DUP2 PUSH20 0xFFFFFFFFFFFFFFFFFFFFFFFFFFFFFFFFFFFFFFFF AND DUP2 MSTORE POP POP DUP1 PUSH1 0x20 ADD MLOAD PUSH20 0xFFFFFFFFFFFFFFFFFFFFFFFFFFFFFFFFFFFFFFFF AND PUSH2 0x8FC DUP7 SWAP1 DUP2 ISZERO MUL SWAP1 PUSH1 0x40 MLOAD PUSH1 0x0 PUSH1 0x40 MLOAD DUP1 DUP4 SUB DUP2 DUP6 DUP9 DUP9 CALL SWAP4 POP POP POP POP ISZERO DUP1 ISZERO PUSH2 0x28D JUMPI RETURNDATASIZE PUSH1 0x0 DUP1 RETURNDATACOPY RETURNDATASIZE PUSH1 0x0 REVERT JUMPDEST POP PUSH1 0x0 DUP2 SWAP1 DUP1 PUSH1 0x1 DUP2 SLOAD ADD DUP1 DUP3 SSTORE DUP1 SWAP2 POP POP PUSH1 0x1 SWAP1 SUB SWAP1 PUSH1 0x0 MSTORE PUSH1 0x20 PUSH1 0x0 KECCAK256 SWAP1 PUSH1 0x3 MUL ADD PUSH1 0x0 SWAP1 SWAP2 SWAP1 SWAP2 SWAP1 SWAP2 POP PUSH1 0x0 DUP3 ADD MLOAD DUP2 PUSH1 0x0 ADD SSTORE PUSH1 0x20 DUP3 ADD MLOAD DUP2 PUSH1 0x1 ADD PUSH1 0x0 PUSH2 0x100 EXP DUP2 SLOAD DUP2 PUSH20 0xFFFFFFFFFFFFFFFFFFFFFFFFFFFFFFFFFFFFFFFF MUL NOT AND SWAP1 DUP4 PUSH20 0xFFFFFFFFFFFFFFFFFFFFFFFFFFFFFFFFFFFFFFFF AND MUL OR SWAP1 SSTORE POP PUSH1 0x40 DUP3 ADD MLOAD DUP2 PUSH1 0x2 ADD SSTORE POP POP POP POP POP POP POP JUMP JUMPDEST PUSH1 0x40 MLOAD DUP1 PUSH1 0x60 ADD PUSH1 0x40 MSTORE DUP1 PUSH1 0x0 DUP2 MSTORE PUSH1 0x20 ADD PUSH1 0x0 PUSH20 0xFFFFFFFFFFFFFFFFFFFFFFFFFFFFFFFFFFFFFFFF AND DUP2 MSTORE PUSH1 0x20 ADD PUSH1 0x0 DUP2 MSTORE POP SWAP1 JUMP JUMPDEST PUSH1 0x0 DUP2 CALLDATALOAD SWAP1 POP PUSH2 0x364 DUP2 PUSH2 0x4A3 JUMP JUMPDEST SWAP3 SWAP2 POP POP JUMP JUMPDEST PUSH1 0x0 DUP2 CALLDATALOAD SWAP1 POP PUSH2 0x379 DUP2 PUSH2 0x4BA JUMP JUMPDEST SWAP3 SWAP2 POP POP JUMP JUMPDEST PUSH1 0x0 PUSH1 0x20 DUP3 DUP5 SUB SLT ISZERO PUSH2 0x391 JUMPI PUSH1 0x0 DUP1 REVERT JUMPDEST PUSH1 0x0 PUSH2 0x39F DUP5 DUP3 DUP6 ADD PUSH2 0x36A JUMP JUMPDEST SWAP2 POP POP SWAP3 SWAP2 POP POP JUMP JUMPDEST PUSH1 0x0 DUP1 PUSH1 0x0 PUSH1 0x60 DUP5 DUP7 SUB SLT ISZERO PUSH2 0x3BD JUMPI PUSH1 0x0 DUP1 REVERT JUMPDEST PUSH1 0x0 PUSH2 0x3CB DUP7 DUP3 DUP8 ADD PUSH2 0x36A JUMP JUMPDEST SWAP4 POP POP PUSH1 0x20 PUSH2 0x3DC DUP7 DUP3 DUP8 ADD PUSH2 0x36A JUMP JUMPDEST SWAP3 POP POP PUSH1 0x40 PUSH2 0x3ED DUP7 DUP3 DUP8 ADD PUSH2 0x355 JUMP JUMPDEST SWAP2 POP POP SWAP3 POP SWAP3 POP SWAP3 JUMP JUMPDEST PUSH2 0x400 DUP2 PUSH2 0x467 JUMP JUMPDEST DUP3 MSTORE POP POP JUMP JUMPDEST PUSH2 0x40F DUP2 PUSH2 0x499 JUMP JUMPDEST DUP3 MSTORE POP POP JUMP JUMPDEST PUSH1 0x0 PUSH1 0x20 DUP3 ADD SWAP1 POP PUSH2 0x42A PUSH1 0x0 DUP4 ADD DUP5 PUSH2 0x406 JUMP JUMPDEST SWAP3 SWAP2 POP POP JUMP JUMPDEST PUSH1 0x0 PUSH1 0x60 DUP3 ADD SWAP1 POP PUSH2 0x445 PUSH1 0x0 DUP4 ADD DUP7 PUSH2 0x406 JUMP JUMPDEST PUSH2 0x452 PUSH1 0x20 DUP4 ADD DUP6 PUSH2 0x3F7 JUMP JUMPDEST PUSH2 0x45F PUSH1 0x40 DUP4 ADD DUP5 PUSH2 0x406 JUMP JUMPDEST SWAP5 SWAP4 POP POP POP POP JUMP JUMPDEST PUSH1 0x0 PUSH2 0x472 DUP3 PUSH2 0x479 JUMP JUMPDEST SWAP1 POP SWAP2 SWAP1 POP JUMP JUMPDEST PUSH1 0x0 PUSH20 0xFFFFFFFFFFFFFFFFFFFFFFFFFFFFFFFFFFFFFFFF DUP3 AND SWAP1 POP SWAP2 SWAP1 POP JUMP JUMPDEST PUSH1 0x0 DUP2 SWAP1 POP SWAP2 SWAP1 POP JUMP JUMPDEST PUSH2 0x4AC DUP2 PUSH2 0x467 JUMP JUMPDEST DUP2 EQ PUSH2 0x4B7 JUMPI PUSH1 0x0 DUP1 REVERT JUMPDEST POP JUMP JUMPDEST PUSH2 0x4C3 DUP2 PUSH2 0x499 JUMP JUMPDEST DUP2 EQ PUSH2 0x4CE JUMPI PUSH1 0x0 DUP1 REVERT JUMPDEST POP JUMP INVALID LOG2 PUSH5 0x6970667358 0x22 SLT KECCAK256 POP 0xB6 CALLCODE MOD 0x2F 0xA5 PUSH11 0x95095BEB5B05D6AB4B0850 GT DUP2 0xAE 0xFC 0xFC SAR MSTORE SWAP9 ADDRESS 0xA5 0xD3 PUSH4 0x3DCA6473 PUSH16 0x6C634300080400330000000000000000 "},"gasEstimates":{"creation":{"codeDepositCost":"257400","executionCost":"300","totalCost":"257700"},"external":{"getTransactionsCount()":"1145","receiveEth(uint256,uint256,address)":"infinite","sendEth()":"infinite","transactions(uint256)":"infinite"}},"methodIdentifiers":{"getTransactionsCount()":"578cb8f9","receiveEth(uint256,uint256,address)":"c1c7a5d0","sendEth()":"06e99fef","transactions(uint256)":"9ace38c2"}},"storageLayout":{"storage":[{"astId":18,"contract":"Faucet.sol:Faucet","label":"transactions","offset":0,"slot":"0","type":"t_array(t_struct(Transaction)8_storage)dyn_storage"},{"astId":22,"contract":"Faucet.sol:Faucet","label":"received","offset":0,"slot":"1","type":"t_mapping(t_address,t_bool)"}],"types":{"t_address":{"encoding":"inplace","label":"address","numberOfBytes":"20"},"t_address_payable":{"encoding":"inplace","label":"address payable","numberOfBytes":"20"},"t_array(t_struct(Transaction)8_storage)dyn_storage":{"base":"t_struct(Transaction)8_storage","encoding":"dynamic_array","label":"struct Faucet.Transaction[]","numberOfBytes":"32"},"t_bool":{"encoding":"inplace","label":"bool","numberOfBytes":"1"},"t_mapping(t_address,t_bool)":{"encoding":"mapping","key":"t_address","label":"mapping(address => bool)","numberOfBytes":"32","value":"t_bool"},"t_struct(Transaction)8_storage":{"encoding":"inplace","label":"struct Faucet.Transaction","members":[{"astId":3,"contract":"Faucet.sol:Faucet","label":"timeStamp","offset":0,"slot":"0","type":"t_uint256"},{"astId":5,"contract":"Faucet.sol:Faucet","label":"recepient","offset":0,"slot":"1","type":"t_address_payable"},{"astId":7,"contract":"Faucet.sol:Faucet","label":"value","offset":0,"slot":"2","type":"t_uint256"}],"numberOfBytes":"96"},"t_uint256":{"encoding":"inplace","label":"uint256","numberOfBytes":"32"}}},"userdoc":{"kind":"user","methods":{},"version":1}}